:1000000000200020F9000000DB040000DB040000F9
:10001000DB040000DB040000DB040000D904000066
:10002000D9040000D9040000D9040000DB0400005A
:10003000DB040000D9040000DB040000DD04000044
:10004000DB040000DB040000DB040000DB04000034
:10005000DB040000DB040000DB040000DB04000024
:10006000DB040000DB040000DB040000DB04000014
:10007000DB040000DB040000DB040000DB04000004
:10008000DB040000DB040000DB040000DB040000F4
:10009000DB040000DB040000DB040000DB040000E4
:1000A000DB040000DB040000DB040000DB040000D4
:1000B000DB040000DB040000DB040000DB040000C4
:1000C000DB040000D5080000DB0400008110000004
:1000D000DB040000DB040000DB040000DB040000A4
:1000E000C5050000150600009D0600005907000028
:1000F000DD070000DB040000454B4CF2205210B538
:100100001A804DF628121A80102223F80E2C00F0C7
:10011000EDF9404B404A1A60404A5A60404B1A6819
:1001200012F4807204D13F490A604FF4A8521A6059
:1001300000233D4A3D483E4C02E019599950043392
:1001400099188142F9D33B4B3B4A002101E043F827
:10015000041B9342FBD3394B00221A60384B0A220E
:100160001A70384B24221A70A02203F8012C364A48
:10017000137803F00203DBB2002BF9D0324A137874
:1001800003F01003DBB2002BF9D12F4A137803F0F0
:100190000C03082BFAD12D4B03221A7040225A70FF
:1001A000294A137803F02003DBB2002BF9D0264A4A
:1001B000137803F04003DBB2002BF9D0244A254B1F
:1001C0001A60254B20221A701F4A137803F00C0383
:1001D0000C2BFAD1214B02221A60214A43F8442CFD
:1001E000204B4BF67F321A60072243F8042C62B68C
:1001F00000F0ECFB0B4B1B68DB0702D51A4800F044
:10020000A7FB01F063FB00F071F901F025FBFEE7AD
:100210000E20054038800440823F04000100002B7E
:1002200010D0034014D0034070EAFF1F40EBFF1FC3
:10023000B41A000040EBFF1F54EDFF1F08ED00E073
:10024000005006400140064006400640044006407B
:1002500000000311448004400040064048800440F0
:10026000C010050014E000E000DD6850FFFFFFFF54
:10027000FFFFFFFFFFFFFFFFFFFFFFFFFFFFFFFF8E
:10028000FFFFFFFFFFFFFFFFFFFFFFFFFFFFFFFF7E
:10029000FFFFFFFFFFFFFFFFFFFFFFFFFFFFFFFF6E
:1002A000FFFFFFFFFFFFFFFFFFFFFFFFFFFFFFFF5E
:1002B000FFFFFFFFFFFFFFFFFFFFFFFFFFFFFFFF4E
:1002C000FFFFFFFFFFFFFFFFFFFFFFFFFFFFFFFF3E
:1002D000FFFFFFFFFFFFFFFFFFFFFFFFFFFFFFFF2E
:1002E000FFFFFFFFFFFFFFFFFFFFFFFFFFFFFFFF1E
:1002F000FFFFFFFFFFFFFFFFFFFFFFFFFFFFFFFF0E
:10030000FFFFFFFFFFFFFFFFFFFFFFFFFFFFFFFFFD
:10031000FFFFFFFFFFFFFFFFFFFFFFFFFFFFFFFFED
:10032000FFFFFFFFFFFFFFFFFFFFFFFFFFFFFFFFDD
:10033000FFFFFFFFFFFFFFFFFFFFFFFFFFFFFFFFCD
:10034000FFFFFFFFFFFFFFFFFFFFFFFFFFFFFFFFBD
:10035000FFFFFFFFFFFFFFFFFFFFFFFFFFFFFFFFAD
:10036000FFFFFFFFFFFFFFFFFFFFFFFFFFFFFFFF9D
:10037000FFFFFFFFFFFFFFFFFFFFFFFFFFFFFFFF8D
:10038000FFFFFFFFFFFFFFFFFFFFFFFFFFFFFFFF7D
:10039000FFFFFFFFFFFFFFFFFFFFFFFFFFFFFFFF6D
:1003A000FFFFFFFFFFFFFFFFFFFFFFFFFFFFFFFF5D
:1003B000FFFFFFFFFFFFFFFFFFFFFFFFFFFFFFFF4D
:1003C000FFFFFFFFFFFFFFFFFFFFFFFFFFFFFFFF3D
:1003D000FFFFFFFFFFFFFFFFFFFFFFFFFFFFFFFF2D
:1003E000FFFFFFFFFFFFFFFFFFFFFFFFFFFFFFFF1D
:1003F000FFFFFFFFFFFFFFFFFFFFFFFFFFFFFFFF0D
:10040000FFFFFFFFFFFFFFFFFFFFFFFFFEFFFFFFFD
:1004100008B54EF64030074BC1F6FF701B1A062B8D
:1004200000D808BD40F20003C0F20003002BF8D052
:100430009847F6E743EBFF1F08B54EF640304EF6FF
:100440004033C1F6FF70C1F6FF731B1A9B1003EB1C
:10045000D373591000D108BD40F20002C0F200026F
:10046000002AF8D09047F6E710B54EF64034C1F6B2
:10047000FF74237873B9FFF7CBFF40F20003C0F29B
:1004800000032BB141F6B420C0F20000AFF30080AE
:100490000123237010BD00BF08B540F20003C0F275
:1004A00000034BB141F6B4204EF64431C0F20000D7
:1004B000C1F6FF71AFF300804EF64030C1F6FF7019
:1004C00003682BB140F20003C0F2000303B1984768
:1004D000BDE80840FFF7B0BFFEE7FEE7024B1A6831
:1004E00001321A60704700BFF0EBFF1F7047034AEC
:1004F0001368181810601846704700BF70EAFF1F95
:1005000000207047002070474FF0FF3070474FF0D9
:10051000FF307047FEE7FEE7084B4FF480721A6029
:100520004FF400721A604FF480621A604FF4006258
:100530001A604FF480521A60704700BF04E100E077
:10054000212830B521D8042A1FD8DFE802F0070996
:10055000050B03000B2306E00A2304E0082302E056
:100560000C2300E00923094A02EBC002526872B66C
:100570001468074D24F47024146044F0807444EA35
:10058000034345F82010136062B630BD2419000003
:100590005CEBFF1F094B03EBC0035B6872B61A6884
:1005A00022F0877222F4803242F080721A60044B8B
:1005B000002243F8202062B6704700BF24190000D3
:1005C0005CEBFF1F114B10B51C68E0041C6004D5E8
:1005D0000F4BDA680AB1DB689847A10404D50C4BCD
:1005E0001A690AB11B699847A20604D5084B1A6E0E
:1005F0000AB11B6E9847E30606D5054BD3F8842055
:1006000012B1D3F88430984710BD00BFA0900440C9
:100610005CEBFF1F1F4B10B51C68E0031C6004D58A
:100620001D4B1A680AB11B689847A10304D51A4BE1
:100630005A680AB15B689847E20704D5164B1A6CF2
:100640000AB11B6C9847A30704D5134B5A6C0AB127
:100650005B6C9847200704D50F4B9A6C0AB19B6CD2
:100660009847610704D50C4BDA6C0AB1DB6C9847EC
:10067000220304D5084B5A6E0AB15B6E9847630398
:1006800006D5054BD3F8802012B1D3F880309847B7
:1006900010BD00BFA0A004405CEBFF1F2C4B10B5A9
:1006A0001C6820071C6004D52A4B5A6A0AB15B6A91
:1006B0009847E10604D5274B9A6A0AB19B6A984786
:1006C000620604D5234BDA6A0AB1DB6A984723062F
:1006D00004D5204B1A6B0AB11B6B9847A00604D5B2
:1006E0001C4B5A6B0AB15B6B9847E10704D5194B59
:1006F000DA6B0AB1DB6B9847A20704D5154B9A6DEC
:100700000AB19B6D9847630704D5124BDA6D0AB1A5
:10071000DB6D9847A00504D50E4BDA6E0AB1DB6E8F
:100720009847E10504D50B4B1A6F0AB11B6F984728
:10073000620504D5074B5A6F0AB15B6F98472305D2
:1007400004D5044B9A6F0AB19B6F984710BD00BF48
:10075000A0B004405CEBFF1F1E4B10B51C68E00707
:100760001C6004D51C4B9A680AB19B689847210607
:1007700004D5194B5A690AB15B699847E20604D55A
:10078000154B9A690AB19B699847630704D5124BC8
:10079000DA690AB1DB699847200704D50E4B1A6A5B
:1007A0000AB11B6A9847A10704D50B4B9A6B0AB193
:1007B0009B6B9847A20604D5074B1A6D0AB11B6DB7
:1007C0009847630604D5044B5A6D0AB15B6D984790
:1007D00010BD00BFA0C004405CEBFF1F094B10B56B
:1007E0001C68A2071C6004D5074B9A6E0AB19B6E69
:1007F0009847E30704D5044BDA6F0AB1DB6F9847DB
:1008000010BD00BFA0D004405CEBFF1F084B1A686E
:1008100042F400021A60074A00231360C2F838311C
:10082000054BFF2283F88820044B02221A60704790
:100830003C800440007003405CEBFF1F04E100E0DB
:100840002128F0B53AD832B14A434FF47A73B2FB5B
:10085000F3F2520001E04FF0FF32194B194D93FBB8
:10086000F1F105EBC0035E6872B6174C94F888305E
:10087000984215D0212B03D8D4F88C3001271F7053
:1008800055F8303084F8880003F58070C4F88C0087
:10089000012083F8000183F880024FF4A2733360D3
:1008A000094BC3F89020094A13688B4205D0084BC6
:1008B00000201860116003221A6062B6F0BD00BF0C
:1008C00000366E01241900005CEBFF1F30710340FD
:1008D000387103400C4B012119600C4BD3F8902068
:1008E0004AB1D3F88C0080F88010511C0BD0013A2B
:1008F000C3F89020704706490A60D3F88C100A703C
:10090000FF2283F8882070473C7103405CEBFF1F97
:100910003871034021280FD872B6084B93F888200D
:10092000824208D1064900220A60D3F88C100A706E
:10093000FF2283F8882062B6704700BF5CEBFF1F80
:1009400038710340014B1868704700BF00D0034066
:10095000044B054900221A600A60044A1060102204
:100960001A60704714D0034004D0034000D0034005
:10097000002810B50FDB02024FF4807347F6FF74B6
:1009800000E00A46A24204D9013B012BC0EB020160
:10099000F7D1120A11E0404202024FF4807348F28C
:1009A000FF0400E00A46A24204D9013B012BC0EB40
:1009B0000201F7D1120AC2F58072013B024942EAF4
:1009C00003220A6010BD00BF0CD0034010B5FFF732
:1009D000A3FD114B114A124C00204BF6FF71186019
:1009E00059602823136093601361936113629362CB
:1009F00013639363092222600A4C20600A48016055
:100A00000A490B608B600A4B1A60FFF7FFFEBDE8D6
:100A1000104000F0A7BD00BF048003400C800340DD
:100A20000080034004900340089003400C90034072
:100A30000090034018B1102828BF102000E00120CA
:100A4000014B1870704700BF74EAFF1F10B50023F8
:100A50004FF4377242FA03F4A14202D80133072B54
:100A6000F8D1154A42FA03F2B2FBF1F101394FF61F
:100A7000FF72914228BF1146C21E012A06D80F4AB2
:100A80000F4C0020106020600E480FE0421F012A2A
:100A900006D9092804D00A2802D01438032809D816
:100AA000094A0A4C002010602060094843F00803FE
:100AB0000160136010BD00BF006CDC0200900340B9
:100AC00004900340089003400080034004800340EA
:100AD00008800340212810B518D80D4A52F830304C
:100AE00093F880423CB1012211B183F8802010BDFF
:100AF00083F8002110BD02EBC00043681A6811B1F1
:100B000042F0030201E022F002021A6010BD00BFB1
:100B100024190000212805D8034B53F8303093F8EE
:100B2000000270470020704724190000212816D8C1
:100B30000B4A02EBC00301295B6852F8302004D154
:100B400082F880124FF4A27208E0002082F880023E
:100B500011B94FF4807201E040F203121A6070473D
:100B60002419000070B50D4601210446FFF7DEFF91
:100B70003A4B19780126002D06FA01F302DC2046D3
:100B8000002103E09D4209D320463146FFF7A2FF32
:100B900020463146BDE87040FFF7C8BFE21ED3B221
:100BA000012B94BF2E4B2F4B1B6801336B4323FA51
:100BB00001F3142A49D8DFE802F00B11171D484849
:100BC00023294848484848484848482F353B410071
:100BD000254A13604FF45172244B34E0244A1360C9
:100BE0004FF45172234B2EE0234A136040F24442EB
:100BF000224B28E0224A136040F24442214B22E07B
:100C0000214A136040F24442204B1CE0204A13600A
:100C100040F244421F4B16E01F4A136040F2444228
:100C20001E4B10E01E4A136040F244421D4B0AE086
:100C30001D4A136040F244421C4B04E01C4A1360FE
:100C40001C4B40F244421A6070BD7F2D2046D4BF39
:100C500000210121BDE87040FFF73CBF74EAFF1F8F
:100C600008900340088003401090034030900440F7
:100C70001890034034900440488003401CC0044056
:100C80003080034010C00440208003400CB004407A
:100C90002880034010B004403880034014C0044052
:100CA0004080034018C004401080034004B004405A
:100CB0001880034008B004402DE9F04107460E4675
:100CC00090460824012505EA08013846FFF702FF8F
:100CD00001213046FFF7FEFE002130466D00FFF790
:100CE000F9FE013CEDB2EED1BDE8F0812DE9F04115
:100CF00007460E4690460824802505EA0801384636
:100D0000FFF7E8FE01213046FFF7E4FE0021304600
:100D1000FFF7E0FE6D08013CEFD1BDE8F08112B9AC
:100D20001A46FFF7C9BF1A46FFF7E0BF2DE9F041A9
:100D300080460F4608240025012638460121FFF78A
:100D4000C9FE4046FFF7E6FE00B1354300213846B4
:100D50007600FFF7BFFE013CF6B2EED12846BDE8B3
:100D6000F0812DE9F04180460F46082400258026B9
:100D700038460121FFF7AEFE4046FFF7CBFE00B13B
:100D8000354300213846FFF7A5FE7608013CEFD138
:100D90002846BDE8F0810AB9FFF7C8BFFFF7E1BFF9
:100DA00072B60D4B0D491A680D4BD3F89430096893
:100DB00062B6480104D54BF64E318A4288BF0133F2
:100DC000C2F53B427F323021B2FBF1F24FF47A7030
:100DD00000FB0320704700BF18E000E004ED00E0D6
:100DE0005CEBFF1F70B50446FFF7DAFF40F2E73611
:100DF0000546FFF7D5FF401BB04203D9013C04D0A4
:100E000005F57A7500F0AEFCF3E770BD70B5072408
:100E100005464C4303E0013C01D1002070BD2B7816
:100E2000002BF8D101E0013CF7D02B78002BFAD051
:100E3000FFF7B6FF064601E0013CEED02B78002B11
:100E4000FAD1FFF7ADFF801B70BD70B507240546D2
:100E50004C4303E0013C01D1002070BD2B78002BF6
:100E6000F8D001E0013CF7D02B78002BFAD1FFF746
:100E700097FF064601E0013CEED02B78002BFAD01C
:100E8000FFF78EFF801B70BD21280BD8064B53F84F
:100E9000300000F5007011B11146FFF7B7BF1146E1
:100EA000FFF7D3BF002070472419000070B50C4B2A
:100EB0000C4C1A7842F0020504EBC50682F00102E0
:100EC000706058781A7000280CBF8826C82646EA39
:100ED000014180F0010044F83510587070BD00BF2A
:100EE000F4EBFF1F00E0FF1F0138022809D872B69B
:100EF000054B03EB8003586808B142685A6062B63C
:100F000070470020704700BFF4EBFF1F0138022834
:100F10000DD8084B03EB8000436872B6002002E056
:100F20001A885B688018002BFAD162B670470020DF
:100F3000704700BFF4EBFF1F013802280DD8084BA3
:100F400003EB8000036972B6002002E01A885B6838
:100F50008018002BFAD162B670470020704700BF9E
:100F6000F4EBFF1F013802280CD8074B03EB80007D
:100F7000036972B6002001E05B680130002BFBD1F1
:100F800062B6704700207047F4EBFF1F70B572B671
:100F9000184E194C01239A1912F8012C02F008027C
:100FA000D2B2E2B19900144A54F831502DB902EB93
:100FB000431308305860114B09E041F0010154F827
:100FC000315065B902EBC103083058600C4B42F850
:100FD00031300C4B1A7F013A1A7762B670BD01337B
:100FE000042BD8D162B6074B00221A77BDE87040B7
:100FF00000F01CBB341A000000E0FF1F8800400016
:10100000C8004000F4EBFF1F421E022A30B530D862
:101010004001184B40F01000181872B6164CA31877
:101020005B7F032B08D8DFE803F0120214050830B9
:1010300002230FE008300CE09200A318186908B9E9
:10104000196101E01B6A5960A218116210E00323C4
:1010500000E00423A21810F0080F537701F10803F1
:101060000A8843600CBF8823C82343EA0243036015
:1010700062B630BD00E0FF1FF4EBFF1F00BE7047FB
:101080002DE9F047AE4CAF4E04F14807337803F03A
:101090000402D2B272B1AC4A92F8341041B192F863
:1010A000351029B10139C9B282F8351001B900BE35
:1010B0000422327003F00802D2B2002A00F0FD814F
:1010C000A24B1B781D094FEA930940F0818154F827
:1010D000392004EBC903C2F38302013A5B680C2A8E
:1010E00000F27281DFE812F04201420170017001EA
:1010F0007001700170017001460170017001700192
:101100000D001A6890485B688263C363904B92B28B
:1011100044F8393001210023B2F5A06F0364236144
:10112000A361417000F0D48011D8822A00F084803D
:1011300003D8802A40F0C88079E0B2F5817F00F0C2
:10114000918040F202339A4240F0BE8099E0B2F5BD
:10115000086F65D005D8A2F5D062012A00F2B480EC
:101160009FE0B2F5106F40F0AF8090F83A20744DD8
:1011700080F8342098462A6A100605D5686A08382F
:1011800000F054FAC5F820800835BD42F3D16E4B0B
:10119000DFF8D49100221A77012598466D4B05EBB4
:1011A0000902EB1812F8012C9B001A7002F00802D9
:1011B000D2B23AB300F01CFAAB0038B104EB4512DE
:1011C00008305060644A44F8332006E044F83300A5
:1011D00098F81C30013388F81C3000F009FAAB0095
:1011E00043F0010338B104EBC30208305060584AA1
:1011F00044F8332006E044F8330098F81C300133FB
:1012000088F81C30AA0042F00201013542F00302C6
:101210000023042D44F8313044F83230BED157E079
:1012200090F83430054605F82C3F0B4655E080F821
:101230002C3080F82D304DE0828F032A00D943E016
:1012400080F82C3080F82D30444B9200D3181B7856
:1012500003F00203DBB2002B3CD00546022305F865
:101260002C1F3AE0828F02F07F03032B2CDC438F8C
:1012700003B129E09100394A8A18117821F002015E
:101280000DE0828F02F07F03032B1DDC438F03B13F
:101290001AE09100314A8A18117841F00201117068
:1012A00016E0428F818F2E4B53F8085C65B133F8FE
:1012B0000CCC944506D133F80ACC8C4502D133F8D6
:1012C000043C0AE00C33EFE7244B0F221A7033E0A2
:1012D0001D4602E0022300F12C051B4AB2F83E90A5
:1012E0004B4538BF9946B9F1400F34BFC8464FF05F
:1012F000400828464146FFF7D9FDB9EB08094544A7
:1013000003D1B8F1400F07D016E0B9F1400F34BF58
:10131000C8464FF0400800E0C84628464146FFF75F
:10132000C5FDB9EB0809454402D1B8F1400F03D11E
:10133000054A1564A2F8449001220A4B43E000BF1D
:1013400000E0FF1F80200740F4EBFF1F90200740C4
:10135000C800400030C8011088004000C02007408D
:10136000441A000094200740341A0000724B44F8DD
:10137000393029E0DFF8C491D9F84080B8F1000F86
:1013800016D0B9F844A0BAF1400F34BF55464025F5
:1013900040462946FFF78AFDC5EB0A039BB2A9F830
:1013A00044300BB9402D01D108EB0503634A1364A7
:1013B000624B1A8FB2F5A06F06D1002283F8392054
:1013C00093F83A205E4B1A705E4B01221A7071E05E
:1013D00004EBC90803F00803D8F80410DFF85CA197
:1013E000013DDBB2A1F10800EDB2002B3AD000F0D4
:1013F0001DF90AEB85010A69D2B1536855440B61A6
:1014000002F10803C8F804306B7F13B1012B04D13B
:1014100001E0032302E0022300E0042318F0080F98
:1014200012886B770CBF8823C82343EA024339E054
:101430000AEB05035B7F032B0BD8DFE803F03B3B94
:1014400002063E4B5D1900230AE03C4B5D19012367
:1014500006E03A4A18F0080F0CBF0223032355197F
:101460006B7727E054F8392021F8063C120C21F85C
:10147000082C41F8043CA9000AEB01035A6802B9A0
:1014800000E09B6C2D4D58606918886400F0B0F83E
:1014900058B1294B2C4A083018F0080FC8F804003E
:1014A00008BF134644F8393004E02B7F44F8390074
:1014B00001332B7708233370E8E5D90721D51F4C7A
:1014C0002048214D21460223037001F8542B1F4B65
:1014D00094341D6059601A619A619D60DC601C4BF8
:1014E0000D2119701B49FF230B7001F8083C0A7489
:1014F000194A1370194B9F221A7001230370BDE81B
:10150000F0871A0605D5124A0D211170802102F8C4
:10151000401C03F00202D2B22AB10E4A11781170B7
:10152000022102F8081C03F01003DBB213B10C4BCC
:1015300010221A70BDE8F087C8004000F4EBFF1FCE
:1015400098200740942007408800400000E0FF1FDB
:10155000C0200740882007408C2007408420074097
:101560008020074000231C491A465A50C8180833E7
:10157000682B4260F9D1194B1A6842F480221A6034
:10158000174B80221A701978154A0906FBD4124BA2
:101590001449C3F307200870C3F307401B0E0875F6
:1015A0000B76FF2301F81C3C01F8143C01F88C3C3D
:1015B000137843F0400313700021012302F8783CB4
:1015C00002F80C1C02F8883C074B08221A60074BF3
:1015D00010221A70704700BF00E0FF1F34800440E3
:1015E0000C2107409C20074004E100E0082107404F
:1015F00072B60C4A1168B1FA81F31D2B02D962B69A
:10160000002070474FF0004020FA03F021EA00016B
:10161000116062B6044948225343C8180022CA50D8
:101620004260704738EBFF1F00E2FF1F0C4B48225F
:10163000C31AB3FBF2F31D2B11D80A4A127822B158
:10164000094A12780AB1FFF7A1BC72B6074A4FF0F7
:10165000004121FA03F311681943116062B6704723
:1016600000E2FF1F10ECFF1F28ECFF1F38EBFF1FED
:10167000164B2DE9F0411E68154F05460C4698465D
:101680003B78E3B10220FFF72FFC40B9D8F80030D7
:101690009B1BA34218D8B4B100F064F8F0E700F146
:1016A00008032A4600F1480153F8044B8B4242F8E4
:1016B000044BF9D1FFF7BAFF4020BDE8F0814FF0AD
:1016C000FF30BDE8F0812046BDE8F081F0EBFF1F60
:1016D00028ECFF1F034B187810B10220FFF716BC4F
:1016E000704700BF28ECFF1F1C4B2DE9F0411D681F
:1016F0001B4F04460E4698463B783BB30120FFF74C
:1017000031FC032805D9D8F800305B1BB34206D959
:1017100020E0FFF76DFF03460028F4D002E000F060
:1017200021F8E9E7204603F1080204F1400150F8EE
:10173000044B884242F8044BF9D1402401201C801C
:101740001946FFF761FC2046BDE8F0814FF0FF30FD
:10175000BDE8F0810020BDE8F08100BFF0EBFF1F85
:1017600028ECFF1F7047FFFF08B5FFF7B3FF3F28C6
:10177000D4BF4FF0FF30012008BD10B5094C0F2138
:101780002046FFF775FF23789B09012B84F8403032
:1017900005D0022B14BF4FF0FF30022010BD1846B9
:1017A00010BD00BFC8ECFF1F0348402300F8413FB5
:1017B0000F21FFF799BF00BFC8ECFF1F034880232C
:1017C00000F8413F0F21FFF78FBF00BFC8ECFF1F9C
:1017D000054B0022C3F88420C3F88820034B4FF444
:1017E0007A721A60704700BFC8ECFF1F3CEBFF1F06
:1017F000174BF0B51B68174CC3F307261F46D4F8E8
:101800008820D4F8843000214FF0FF30413404EBBD
:10181000010C01280E550F4D8CF8017004D1C5F84C
:101820008430C5F8882010E00133B3F5F07F01D192
:10183000013200230231B42A08BF01204029E6D139
:101840000449C1F88430C1F888200120F0BD00BFF0
:101850003CEBFF1FC8ECFF1F70B51A4E002454B9B3
:10186000FFF782FF0128FBD1FFF787FF0128F7D19F
:10187000FFF79AFF01E0012C03D1FFF7A9FF022433
:1018800001E0022C17D1FFF76FFF012807D1FFF706
:1018900074FF0128054602D1FFF786FF2C46FFF7AB
:1018A000A7FF012803D108480F21FFF71DFFD6F835
:1018B0008830B42B00E0032CD1D1FFF789FFFFF76C
:1018C0007DFFCDE7C8ECFF1F09EDFF1F70B541F6A6
:1018D000B02641F6B025C0F20006C0F20005761B26
:1018E000B61007D0043D002455F8043F0134984752
:1018F000A642F9D141F6B42641F6B025C0F2000661
:10190000C0F20005761B00F0CDF8B61008D0043DFB
:10191000002455F8043F01349847A642F9D170BD20
:1019200070BD00BF4008FE4340A004404408FE4391
:1019300044A004400018FE4300C004403000FE43B1
:10194000309004403400FE43349004401C18FE43A1
:101950001CC004401018FE4310C004400818FE4389
:1019600008C004400C18FE430CC004400C10FE4399
:101970000CB004401010FE4310B004401810FE4399
:1019800018B004401C10FE431CB004401410FE4369
:1019900014B004400418FE4304C004400010FE4389
:1019A00000B004400008FE4300A004400408FE43C9
:1019B00004A004400C08FE430CA004400808FE43A9
:1019C00008A004401418FE4314C004401818FE4335
:1019D00018C004400410FE4304B004400810FE4345
:1019E00008B004401400FE43149004404C08FE4329
:1019F0004CA004400420FE4304D004402410FE43C5
:101A000024B004402010FE4320B004402810FE43C0
:101A100028B004402C10FE432CB004400020FE43AC
:101A200000D004404808FE4348A004401000FE4394
:101A300010900440151900000001000076EAFF1F15
:101A4000120000000002000088EAFF1F29000000C9
:101A500000220000B1EAFF1F1C000000002100006E
:101A60009AEAFF1F0900000000030000CEEAFF1FF2
:101A70000400000001030904D2EAFF1F3600000041
:101A80000203090408EBFF1F2400000003030904FC
:101A90002CEBFF1F0C000000000000000000000005
:101AA00000000000F8B500BFF8BC08BC9E467047B7
:041AB0009904000095
:101AB40054EDFF1F08001201000200000040C01690
:101AC400860400010102030109022900010100C08A
:101AD4003209040000020300000009211101000181
:101AE400221C000705810340000107050203400092
:101AF4000106ABFF0A0002A1017508150026FF00CC
:101B0400954009018102954009029102C000040335
:101B140009043603540068007200650065002D0056
:101B2400440069006D0065006E00730069006F0079
:101B34006E0061006C002D005400680069006E00A6
:101B44006B0069006E0067002403330044002D001D
:101B54005300630061006E006E0065007200200097
:101B64005200610077004800490044000C03310032
:101B74003200330034003500FFFFFFFFE8030000AC
:00000001FF
